{
  "contractName": "MerkleTrie",
  "abi": [
    {
      "inputs": [
        {
          "internalType": "bytes32",
          "name": "rootHash",
          "type": "bytes32"
        },
        {
          "internalType": "bytes",
          "name": "path",
          "type": "bytes"
        },
        {
          "components": [
            {
              "internalType": "uint256",
              "name": "len",
              "type": "uint256"
            },
            {
              "internalType": "uint256",
              "name": "memPtr",
              "type": "uint256"
            }
          ],
          "internalType": "struct RLPReader.RLPItem[]",
          "name": "stack",
          "type": "tuple[]"
        }
      ],
      "name": "extractProofValue",
      "outputs": [
        {
          "internalType": "bytes",
          "name": "value",
          "type": "bytes"
        }
      ],
      "stateMutability": "pure",
      "type": "function",
      "constant": true
    }
  ],
  "bytecode": "0x61112c610026600b82828239805160001a60731461001957fe5b30600052607381538281f3fe73000000000000000000000000000000000000000030146080604052600436106100355760003560e01c8063c73ea3901461003a575b600080fd5b610054600480360381019061004f9190610eae565b61006a565b6040516100619190610f98565b60405180910390f35b606080610078846000610538565b90506000806060610087610d47565b600087511415610118577f56e81f171bcc55a6ff8345e692c0f86e5b48e01b996cadc001622fb5e363b42160001b89146100c057600080fd5b600067ffffffffffffffff811180156100d857600080fd5b506040519080825280601f01601f19166020018201604052801561010b5781602001600182028036833780820191505090505b5095505050505050610531565b60005b875181101561052a5760008114801561014f575061014b88828151811061013e57fe5b60200260200101516106d6565b8a14155b1561015957600080fd5b60008114158015610185575061018188828151811061017457fe5b60200260200101516106fb565b8414155b1561018f57600080fd5b6101ab88828151811061019e57fe5b6020026020010151610751565b925060028351141561039c57600060606101e06101db866000815181106101ce57fe5b6020026020010151610845565b6108d6565b809250819350505060006101f5888a8461098b565b9050808801975081518110156102725760018b510384101561021657600080fd5b600067ffffffffffffffff8111801561022e57600080fd5b506040519080825280601f01601f1916602001820160405280156102615781602001600182028036833780820191505090505b509950505050505050505050610531565b821561031e5760018b510384101561028957600080fd5b88518810156102ee57600067ffffffffffffffff811180156102aa57600080fd5b506040519080825280601f01601f1916602001820160405280156102dd5781602001600182028036833780820191505090505b509950505050505050505050610531565b856001815181106102fb57fe5b6020026020010151945061030e85610845565b9950505050505050505050610531565b60018b510384141561032f57600080fd5b61034c8660018151811061033f57fe5b6020026020010151610a45565b6103745761036d8660018151811061036057fe5b6020026020010151610a93565b9650610394565b6103918660018151811061038457fe5b60200260200101516106d6565b96505b50505061051d565b60118351141561051c57855185146104e15760008686815181106103bc57fe5b602001015160f81c60f81b60f81c905060018601955060108160ff16106103e257600080fd5b610401848260ff16815181106103f457fe5b6020026020010151610ab7565b15610470576001895103821461041657600080fd5b600067ffffffffffffffff8111801561042e57600080fd5b506040519080825280601f01601f1916602001820160405280156104615781602001600182028036833780820191505090505b50975050505050505050610531565b61048f848260ff168151811061048257fe5b6020026020010151610a45565b6104b9576104b2848260ff16815181106104a557fe5b6020026020010151610a93565b94506104db565b6104d8848260ff16815181106104cb57fe5b60200260200101516106d6565b94505b5061051b565b600188510381146104f157600080fd5b61050e8360108151811061050157fe5b6020026020010151610845565b9650505050505050610531565b5b5b808060010191505061011b565b5050505050505b9392505050565b6060600083511161054857600080fd5b6000600284510290508083111561055e57600080fd5b82810390508067ffffffffffffffff8111801561057a57600080fd5b506040519080825280601f01601f1916602001820160405280156105ad5781602001600182028036833780820191505090505b5091506000808490505b8285018110156106c3576000600282816105cd57fe5b06141561064557600f600487600284816105e357fe5b04815181106105ee57fe5b602001015160f81c60f81b60f81c60ff16901c1660f81b84838151811061061157fe5b60200101907effffffffffffffffffffffffffffffffffffffffffffffffffffffffffffff1916908160001a9053506106b2565b600f6000876002848161065457fe5b048151811061065f57fe5b602001015160f81c60f81b60f81c60ff16901c1660f81b84838151811061068257fe5b60200101907effffffffffffffffffffffffffffffffffffffffffffffffffffffffffffff1916908160001a9053505b6001820191506001810190506105b7565b50825181146106ce57fe5b505092915050565b6000808260200151905060008360000151905060008183209050809350505050919050565b600060208260000151101561071a57610713826106d6565b905061074c565b610723826106d6565b6040516020016107339190610f7d565b6040516020818303038152906040528051906020012090505b919050565b606061075c82610a45565b61076557600080fd5b600061077083610af0565b905060608167ffffffffffffffff8111801561078b57600080fd5b506040519080825280602002602001820160405280156107c557816020015b6107b2610d47565b8152602001906001900390816107aa5790505b50905060006107d78560200151610b5d565b8560200151019050600080600090505b84811015610838576107f883610be6565b915060405180604001604052808381526020018481525084828151811061081b57fe5b6020026020010181905250818301925080806001019150506107e7565b5082945050505050919050565b6060600082600001511161085857600080fd5b60008061086484610c9e565b9150915060608167ffffffffffffffff8111801561088157600080fd5b506040519080825280601f01601f1916602001820160405280156108b45781602001600182028036833780820191505090505b50905060008160200190506108ca848285610cd6565b81945050505050919050565b6000606060008351116108e857600080fd5b6000600f6004856000815181106108fb57fe5b602001015160f81c60f81b60f81c60ff16901c1660ff16905060008082141561092b576002905060009350610975565b6001821415610941576001905060009350610974565b6002821415610957576002905060019350610973565b600382141561096d576001905060019350610972565b600080fd5b5b5b5b836109808683610538565b935093505050915091565b600080600090505b83518582011080156109a55750825181105b15610a39578281815181106109b657fe5b602001015160f81c60f81b7effffffffffffffffffffffffffffffffffffffffffffffffffffffffffffff191684868301815181106109f157fe5b602001015160f81c60f81b7effffffffffffffffffffffffffffffffffffffffffffffffffffffffffffff191614610a2c5780915050610a3e565b8080600101915050610993565b809150505b9392505050565b60008082600001511415610a5c5760009050610a8e565b60008083602001519050805160001a915060c060ff168260ff161015610a8757600092505050610a8e565b6001925050505b919050565b6000806000610aa184610c9e565b9150915060008183209050809350505050919050565b60006001826000015114610ace5760009050610aeb565b60008083602001519050805160001a915060808260ff1614925050505b919050565b60008082600001511415610b075760009050610b58565b600080610b178460200151610b5d565b84602001510190506000846000015185602001510190505b80821015610b5157610b4082610be6565b820191508280600101935050610b2f565b8293505050505b919050565b600080825160001a9050608060ff16811015610b7d576000915050610be1565b60b860ff16811080610ba2575060c060ff168110158015610ba1575060f860ff1681105b5b15610bb1576001915050610be1565b60c060ff16811015610bd15760018060b80360ff16820301915050610be1565b60018060f80360ff168203019150505b919050565b6000806000835160001a9050608060ff16811015610c075760019150610c94565b60b860ff16811015610c24576001608060ff168203019150610c93565b60c060ff16811015610c545760b78103600185019450806020036101000a85510460018201810193505050610c92565b60f860ff16811015610c7157600160c060ff168203019150610c91565b60f78103600185019450806020036101000a855104600182018101935050505b5b5b5b8192505050919050565b6000806000610cb08460200151610b5d565b905060008185602001510190506000828660000151039050818194509450505050915091565b6000811415610ce457610d42565b5b602060ff168110610d145782518252602060ff1683019250602060ff1682019150602060ff1681039050610ce5565b6000811115610d41576000600182602060ff16036101000a03905080198451168184511681811785525050505b5b505050565b604051806040016040528060008152602001600081525090565b600082601f830112610d7257600080fd5b8135610d85610d8082610fe7565b610fba565b91508181835260208401935060208101905083856040840282011115610daa57600080fd5b60005b83811015610dda5781610dc08882610e4d565b845260208401935060408301925050600181019050610dad565b5050505092915050565b600081359050610df3816110c8565b92915050565b600082601f830112610e0a57600080fd5b8135610e1d610e188261100f565b610fba565b91508082526020830160208301858383011115610e3957600080fd5b610e4483828461106b565b50505092915050565b600060408284031215610e5f57600080fd5b610e696040610fba565b90506000610e7984828501610e99565b6000830152506020610e8d84828501610e99565b60208301525092915050565b600081359050610ea8816110df565b92915050565b600080600060608486031215610ec357600080fd5b6000610ed186828701610de4565b935050602084013567ffffffffffffffff811115610eee57600080fd5b610efa86828701610df9565b925050604084013567ffffffffffffffff811115610f1757600080fd5b610f2386828701610d61565b9150509250925092565b610f3e610f3982611057565b6110ad565b82525050565b6000610f4f8261103b565b610f598185611046565b9350610f6981856020860161107a565b610f72816110b7565b840191505092915050565b6000610f898284610f2d565b60208201915081905092915050565b60006020820190508181036000830152610fb28184610f44565b905092915050565b6000604051905081810181811067ffffffffffffffff82111715610fdd57600080fd5b8060405250919050565b600067ffffffffffffffff821115610ffe57600080fd5b602082029050602081019050919050565b600067ffffffffffffffff82111561102657600080fd5b601f19601f8301169050602081019050919050565b600081519050919050565b600082825260208201905092915050565b6000819050919050565b6000819050919050565b82818337600083830152505050565b60005b8381101561109857808201518184015260208101905061107d565b838111156110a7576000848401525b50505050565b6000819050919050565b6000601f19601f8301169050919050565b6110d181611057565b81146110dc57600080fd5b50565b6110e881611061565b81146110f357600080fd5b5056fea2646970667358221220718d2a3548ca0c3b56e079e2177419b1e2a962fc9dbf60a85755c27de9f1da2764736f6c634300060c0033",
  "immutableReferences": {},
  "source": "// SPDX-License-Identifier: MIT\n\n/**\n * Copied from https://github.com/lorenzb/proveth/blob/c74b20e/onchain/ProvethVerifier.sol\n * with minor performance and code style-related modifications.\n */\npragma solidity >= 0.6.12;\npragma experimental ABIEncoderV2;\n\nimport {RLPReader} from \"solidity-rlp/contracts/RLPReader.sol\";\n\n\nlibrary MerkleTrie {\n      using RLPReader for RLPReader.RLPItem;\n      using RLPReader for bytes;\n  \n    /// @dev Validates a Merkle-Patricia-Trie proof.\n      ///      If the proof proves the inclusion of some key-value pair in the\n      ///      trie, the value is returned. Otherwise, i.e. if the proof proves\n      ///      the exclusion of a key from the trie, an empty byte array is\n      ///      returned.\n      /// @param rootHash is the Keccak-256 hash of the root node of the MPT.\n      /// @param path is the key of the node whose inclusion/exclusion we are\n      ///        proving.\n      /// @param stack is the stack of MPT nodes (starting with the root) that\n      ///        need to be traversed during verification.\n      /// @return value whose inclusion is proved or an empty byte array for\n      ///         a proof of exclusion\n      function extractProofValue(\n              bytes32 rootHash,\n              bytes memory path,\n              RLPReader.RLPItem[] memory stack\n          ) public pure returns (bytes memory value) {\n              bytes memory mptKey = _decodeNibbles(path, 0);\n              uint256 mptKeyOffset = 0;\n      \n          bytes32 nodeHashHash;\n            RLPReader.RLPItem[] memory node;\n      \n          RLPReader.RLPItem memory rlpValue;\n    \n          if (stack.length == 0) {\n                  // Root hash of empty Merkle-Patricia-Trie\n                    require(rootHash == 0x56e81f171bcc55a6ff8345e692c0f86e5b48e01b996cadc001622fb5e363b421);\n                      return new bytes(0);\n                  }\n        \n            // Traverse stack of nodes starting at root.\n              for (uint256 i = 0; i < stack.length; i++) {\n        \n                // We use the fact that an rlp encoded list consists of some\n                    // encoding of its length plus the concatenation of its\n                      // *rlp-encoded* items.\n          \n                // The root node is hashed with Keccak-256 ...\n                    if (i == 0 && rootHash != stack[i].rlpBytesKeccak256()) {\n                            revert();\n                          }\n                        // ... whereas all other nodes are hashed with the MPT\n                        // hash function.\n                        if (i != 0 && nodeHashHash != _mptHashHash(stack[i])) {\n                              revert();\n                          }\n                        // We verified that stack[i] has the correct hash, so we\n                        // may safely decode it.\n                        node = stack[i].toList();\n            \n                  if (node.length == 2) {\n                          // Extension or Leaf node\n            \n                      bool isLeaf;\n                          bytes memory nodeKey;\n                            (isLeaf, nodeKey) = _merklePatriciaCompactDecode(node[0].toBytes());\n              \n                      uint256 prefixLength = _sharedPrefixLength(mptKeyOffset, mptKey, nodeKey);\n                          mptKeyOffset += prefixLength;\n            \n                      if (prefixLength < nodeKey.length) {\n                                // Proof claims divergent extension or leaf. (Only\n                                    // relevant for proofs of exclusion.)\n                                      // An Extension/Leaf node is divergent iff it \"skips\" over\n                                      // the point at which a Branch node should have been had the\n                                      // excluded key been included in the trie.\n                                      // Example: Imagine a proof of exclusion for path [1, 4],\n                                      // where the current node is a Leaf node with\n                                      // path [1, 3, 3, 7]. For [1, 4] to be included, there\n                                      // should have been a Branch node at [1] with a child\n                                      // at 3 and a child at 4.\n                  \n                            // Sanity check\n                                  if (i < stack.length - 1) {\n                                          // divergent node must come last in proof\n                                            revert();\n                                          }\n                    \n                              return new bytes(0);\n                              }\n              \n                      if (isLeaf) {\n                                // Sanity check\n                                    if (i < stack.length - 1) {\n                                            // leaf node must come last in proof\n                                              revert();\n                                          }\n                    \n                              if (mptKeyOffset < mptKey.length) {\n                                        return new bytes(0);\n                                        }\n                    \n                              rlpValue = node[1];\n                                  return rlpValue.toBytes();\n                                } else { // extension\n                                    // Sanity check\n                                      if (i == stack.length - 1) {\n                                            // shouldn't be at last level\n                                              revert();\n                                          }\n                    \n                              if (!node[1].isList()) {\n                                        // rlp(child) was at least 32 bytes. node[1] contains\n                                            // Keccak256(rlp(child)).\n                                              nodeHashHash = node[1].payloadKeccak256();\n                                          } else {\n                                              // rlp(child) was less than 32 bytes. node[1] contains\n                                              // rlp(child).\n                                              nodeHashHash = node[1].rlpBytesKeccak256();\n                                          }\n                                    }\n                              } else if (node.length == 17) {\n                                // Branch node\n                \n                        if (mptKeyOffset != mptKey.length) {\n                                  // we haven't consumed the entire path, so we need to look at a child\n                                    uint8 nibble = uint8(mptKey[mptKeyOffset]);\n                                      mptKeyOffset += 1;\n                                      if (nibble >= 16) {\n                                            // each element of the path has to be a nibble\n                                              revert();\n                                          }\n                    \n                              if (_isEmptyBytesequence(node[nibble])) {\n                                        // Sanity\n                                            if (i != stack.length - 1) {\n                                                    // leaf node should be at last level\n                                                      revert();\n                                                  }\n                        \n                                    return new bytes(0);\n                                      } else if (!node[nibble].isList()) {\n                                            nodeHashHash = node[nibble].payloadKeccak256();\n                                          } else {\n                                              nodeHashHash = node[nibble].rlpBytesKeccak256();\n                                          }\n                                    } else {\n                                        // we have consumed the entire mptKey, so we need to look at what's contained in this node.\n                    \n                              // Sanity\n                                  if (i != stack.length - 1) {\n                                          // should be at last level\n                                            revert();\n                                          }\n                    \n                              return node[16].toBytes();\n                              }\n                          }\n                    }\n              }\n      \n  \n    /// @dev Computes the hash of the Merkle-Patricia-Trie hash of the RLP item.\n      ///      Merkle-Patricia-Tries use a weird \"hash function\" that outputs\n      ///      *variable-length* hashes: If the item is shorter than 32 bytes,\n      ///      the MPT hash is the item. Otherwise, the MPT hash is the\n      ///      Keccak-256 hash of the item.\n      ///      The easiest way to compare variable-length byte sequences is\n      ///      to compare their Keccak-256 hashes.\n      /// @param item The RLP item to be hashed.\n      /// @return Keccak-256(MPT-hash(item))\n      function _mptHashHash(RLPReader.RLPItem memory item) private pure returns (bytes32) {\n            if (item.len < 32) {\n                    return item.rlpBytesKeccak256();\n                  } else {\n                      return keccak256(abi.encodePacked(item.rlpBytesKeccak256()));\n                  }\n            }\n      \n      function _isEmptyBytesequence(RLPReader.RLPItem memory item) private pure returns (bool) {\n            if (item.len != 1) {\n                    return false;\n                  }\n                uint8 b;\n                uint256 memPtr = item.memPtr;\n                assembly {\n                      b := byte(0, mload(memPtr))\n                  }\n                return b == 0x80 /* empty byte string */;\n            }\n      \n  \n    function _merklePatriciaCompactDecode(bytes memory compact) private pure returns (bool isLeaf, bytes memory nibbles) {\n            require(compact.length > 0);\n              uint256 first_nibble = uint8(compact[0]) >> 4 & 0xF;\n              uint256 skipNibbles;\n              if (first_nibble == 0) {\n                    skipNibbles = 2;\n                      isLeaf = false;\n                  } else if (first_nibble == 1) {\n                      skipNibbles = 1;\n                      isLeaf = false;\n                  } else if (first_nibble == 2) {\n                      skipNibbles = 2;\n                      isLeaf = true;\n                  } else if (first_nibble == 3) {\n                      skipNibbles = 1;\n                      isLeaf = true;\n                  } else {\n                      // Not supposed to happen!\n                      revert();\n                  }\n                return (isLeaf, _decodeNibbles(compact, skipNibbles));\n            }\n      \n  \n    function _decodeNibbles(bytes memory compact, uint256 skipNibbles) private pure returns (bytes memory nibbles) {\n            require(compact.length > 0);\n      \n          uint256 length = compact.length * 2;\n            require(skipNibbles <= length);\n              length -= skipNibbles;\n      \n          nibbles = new bytes(length);\n            uint256 nibblesLength = 0;\n      \n          for (uint256 i = skipNibbles; i < skipNibbles + length; i += 1) {\n                  if (i % 2 == 0) {\n                          nibbles[nibblesLength] = bytes1((uint8(compact[i/2]) >> 4) & 0xF);\n                        } else {\n                              nibbles[nibblesLength] = bytes1((uint8(compact[i/2]) >> 0) & 0xF);\n                          }\n                        nibblesLength += 1;\n                    }\n          \n            assert(nibblesLength == nibbles.length);\n          }\n    \n  \n    function _sharedPrefixLength(uint256 xsOffset, bytes memory xs, bytes memory ys) private pure returns (uint256) {\n            uint256 i;\n              for (i = 0; i + xsOffset < xs.length && i < ys.length; i++) {\n                    if (xs[i + xsOffset] != ys[i]) {\n                            return i;\n                          }\n                    }\n                  return i;\n            }\n      }\n",
  "sourcePath": "/Users/michalkonopka/code/github.com/eth-merkle-proofs/packages/solidity-verifier/contracts/MerkleTrie.sol",
  "compiler": {
    "name": "solc",
    "version": "0.6.12+commit.27d51765.Emscripten.clang"
  },
  "schemaVersion": "3.4.10",
  "updatedAt": "2022-10-16T18:36:03.632Z",
  "networkType": "ethereum",
  "devdoc": {
    "kind": "dev",
    "methods": {
      "extractProofValue(bytes32,bytes,RLPReader.RLPItem[])": {
        "details": "Validates a Merkle-Patricia-Trie proof.      If the proof proves the inclusion of some key-value pair in the      trie, the value is returned. Otherwise, i.e. if the proof proves      the exclusion of a key from the trie, an empty byte array is      returned.",
        "params": {
          "path": "is the key of the node whose inclusion/exclusion we are        proving.",
          "rootHash": "is the Keccak-256 hash of the root node of the MPT.",
          "stack": "is the stack of MPT nodes (starting with the root) that        need to be traversed during verification."
        },
        "returns": {
          "value": "whose inclusion is proved or an empty byte array for         a proof of exclusion"
        }
      }
    },
    "version": 1
  },
  "userdoc": {
    "kind": "user",
    "methods": {},
    "version": 1
  }
}